:020000040800F2
:1000000000100020DD000008130400081904000897
:100010000D0400080D0400080D0400080D0400087C
:100020000D0400080D0400080D0400081F0400085A
:100030000D0400080D040008250400082B04000826
:100040000D0400080D0400080D0400080D0400084C
:100050000D0400087D0400080D0400080D040008CC
:100060000D0400080D0400080D0400080D0400082C
:100070000D0400080D0400080D0400080D0400081C
:100080000D0400080D0400080D0400080D0400080C
:100090000D0400080D0400080D0400080D040008FC
:1000A0000D0400080D0400080D04000811060008E6
:1000B0000D0400080D0400080D0400080D040008DC
:1000C00080B500AF044B180000F0A0F800F008F86D
:1000D00000F00EFAFEE7C04600080048FFF7F0FF08
:1000E00080B500AF244B1A68234B01210A431A60E4
:1000F000C046214B1B680121180000F045F8031E83
:10010000F7D01D4B1A681C4B1C490A401A601C4B47
:100110001A681B4B1B490A401A60194B1A68184B86
:10012000A02189030A431A60134B1A68124B8021DD
:1001300049040A431A60C0460F4B1B681921180076
:1001400000F022F8031EF7D00D4B1A680C4B032168
:100150008A431A600A4B1A68094B02210A431A6043
:10016000C046074B1B680C221340082BF9D1C04630
:10017000C046BD4680BDC04600100240FFFFFFFEE6
:1001800004100240FFFFC3FF80B584B000AF786069
:10019000396001223B689A4013001A007B681340C3
:1001A000FB60FB68002B01D0012300E00023180056
:1001B000BD4604B080BD80B582B000AF78600F4B03
:1001C0007A680F498A1A1A600E4B00221A600E4B89
:1001D00005221A6008E0C0460B4B1B68102118006E
:1001E000FFF7D2FF031EF7D07B685A1E7A60002B00
:1001F000F1D1C046C046BD4602B080BD14E000E06B
:100200007FBB000018E000E010E000E080B582B0A5
:1002100000AF78607A689023DB059A4207D1234BC0
:100220001A68224B802189020A431A603AE07B68EF
:100230001F4A934207D11D4B1A681C4B8021C902EB
:100240000A431A602EE07B681A4A934207D1174B83
:100250001A68164B802109030A431A6022E07B6862
:10026000154A934207D1114B1A68104B802149035C
:100270000A431A6016E07B68104A934207D10B4B81
:100280001A680A4B802189030A431A600AE07B68D6
:100290000B4A934206D1054B1A68044B8021C903CF
:1002A0000A431A60C046BD4602B080BD1410024029
:1002B0000004004800080048000C004800100048F6
:1002C0000014004880B586B000AFF860B9607A606D
:1002D000FB687B61FB6814333B617B691B68BA6810
:1002E0005200012191400A001A437B691A607B6821
:1002F000002B09D03B691B680121BA6891400A00B4
:100300001A433B691A600CE07B68002B09D13B69FA
:100310001B680121BA6891400A00D2431A403B6928
:100320001A60C046BD4606B080BD80B582B000AF41
:100330007860174B1A68164B20210A431A60144B39
:100340001A68134B40210A431A60C046114B1B68C0
:1003500000211800FFF718FF031EF7D005E00D4B32
:100360001A680C4B20210A431A600A4B1B680521AE
:100370001800FFF709FF031EF1D0054B1A68044B64
:1003800020218A431A60C046BD4602B080BDC046E7
:10039000100000080C00000880B582B000AF020019
:1003A000FB1D1A70074B1B6807211800FFF7ECFEB6
:1003B000031E03D0044BFA1D12781A60C046BD46D6
:1003C00002B080BD1C3801402838014080B582B0A1
:1003D00000AF78600FE00C4B1B6807211800FFF797
:1003E000D3FE031E07D07B681B781800FFF7D4FFED
:1003F0007B6801337B607B681B78002BEBD1C046A8
:10040000C046BD4602B080BD1C38014080B500AF7B
:10041000FEE780B500AFFEE780B500AFFEE780B530
:1004200000AFFEE780B500AFFEE780B500AFFEE7A6
:1004300080B500AF0D4B1A680C4B0F218A431A6030
:100440000B4B1A680A4B01210A431A60094B1A68C0
:10045000084B01210A431A60074B1A68064B2021FA
:100460000A431A60C046BD4680BDC0460800014030
:10047000080401400004014000E100E080B500AF45
:100480006420FFF798FE094B1B68012B0BD1084B2A
:100490001B6801221340012B05D1044B1A68034B42
:1004A00001210A431A60C046BD4680BD14040140C4
:1004B0000004014080B500AF0A4B1A68094B0121C6
:1004C0000A431A60084B1A68074B01210A431A6055
:1004D000064B1A68054B802109050A431A60C0467D
:1004E000BD4680BD080401400004014000E100E079
:1004F00080B500AF9023DB051A689023DB053649F1
:100500000A401A609023DB051A689023DB058021DE
:1005100009030A431A609023DB051A689023DB0560
:100520002E490A401A609023DB051A689023DB05E8
:10053000802189030A431A60294B1A68284B2949EC
:100540000A401A60264B1A68254B80210A431A601C
:10055000254B1A68244B25490A401A60224B1A6819
:10056000214B802109010A431A60214B1A68204B54
:1005700001210A431A601E4B1A681D4B1D490A408F
:100580001A601B4B1A681A4B1B490A401A60184B19
:100590001A68174B19490A401A60194B1A68184B08
:1005A00015490A401A60124B1A68114B15490A4046
:1005B0001A60154B154A1A600D4B1A680C4B0F2127
:1005C0008A431A600A4B1A68094B0B210A431A60C6
:1005D000C046BD4680BDC046FFFFF3FFFFFFCFFF13
:1005E00020000048FFF0FFFF24000048FF0FFFFF3E
:1005F00000380140FFFFFFEFFFEFFFFFFFFBFFFFB2
:1006000004380140FF7FFFFF0C38014088130000D1
:0C06100080B500AFC046BD4680BDC046AE
:04000005080000DD12
:00000001FF
