:020000040800F2
:1000000000100020DD000008E7000008ED000008F7
:10001000E1000008E1000008E1000008E10000083C
:10002000E1000008E1000008E1000008F30000081A
:10003000E1000008E1000008F9000008FF000008E6
:10004000E1000008E1000008E1000008E10000080C
:10005000E100000825020008E1000008E1000008B6
:10006000E1000008E1000008E1000008E1000008EC
:10007000E1000008E1000008E1000008E1000008DC
:10008000E1000008E1000008E1000008E1000008CC
:10009000E1000008E1000008E1000008E1000008BC
:1000A000E1000008E1000008E1000008E1000008AC
:1000B000E1000008E1000008E1000008E10000089C
:1000C00080B500AF044B180000F0F4F800F01AF807
:1000D00000F083F8FEE7C04600080048FFF7F0FF95
:1000E00080B500AFFEE780B500AFFEE780B500AF9A
:1000F000FEE780B500AFFEE780B500AFFEE780B554
:1001000000AFFEE780B500AF244B1A68234B0121F6
:100110000A431A60C046214B1B680121180000F0F9
:1001200045F8031EF7D01D4B1A681C4B1C490A40AA
:100130001A601C4B1A681B4B1B490A401A60194B6A
:100140001A68184BA02189030A431A60134B1A68D6
:10015000124B802149040A431A60C0460F4B1B68AA
:100160001921180000F022F8031EF7D00D4B1A6871
:100170000C4B03218A431A600A4B1A68094B02216F
:100180000A431A60C046074B1B680C221340082B19
:10019000F9D1C046C046BD4680BDC04600100240F1
:1001A000FFFFFFFE04100240FFFFC3FF80B584B0D5
:1001B00000AF7860396001223B689A4013001A0052
:1001C0007B681340FB60FB68002B01D0012300E03B
:1001D00000231800BD4604B080BD80B500AF0D4BB4
:1001E0001A680C4B0F218A431A600B4B1A680A4B92
:1001F00001210A431A60094B1A68084B01210A437E
:100200001A60074B1A68064B20210A431A60C04641
:10021000BD4680BD080001400804014000040140C3
:1002200000E100E080B500AF642000F017F8094B52
:100230001B68012B0BD1084B1B6801221340012BBB
:1002400005D1044B1A68034B01210A431A60C046CA
:10025000BD4680BD140401400004014080B582B059
:1002600000AF78600F4B7A680F498A1A1A600F4BFB
:1002700000221A600E4B05221A6008E0C0460C4BA3
:100280001B6810211800FFF791FF031EF7D07B6851
:100290005A1E7A60002BF1D1C046C046BD4602B05E
:1002A00080BDC04614E000E07BBB000018E000E029
:1002B00010E000E080B582B000AF78607A689023EB
:1002C000DB059A4207D1234B1A68224B8021890211
:1002D0000A431A603AE07B681F4A934207D11D4BDC
:1002E0001A681C4B8021C9020A431A602EE07B6801
:1002F0001A4A934207D1174B1A68164B80210903FB
:100300000A431A6022E07B68154A934207D1114BD9
:100310001A68104B802149030A431A6016E07B6873
:10032000104A934207D10B4B1A680A4B802189036C
:100330000A431A600AE07B680B4A934206D1054BD8
:100340001A68044B8021C9030A431A60C046BD469F
:1003500002B080BD141002400004004800080048AC
:10036000000C0048001000480014004880B586B01A
:1003700000AFF860B9607A60FB687B61FB6814339A
:100380003B617B691B68BA685200012191400A00F9
:100390001A437B691A607B68002B09D03B691B6894
:1003A0000121BA6891400A001A433B691A600CE0C7
:1003B0007B68002B09D13B691B680121BA68914019
:1003C0000A00D2431A403B691A60C046BD4606B0D7
:1003D00080BD80B582B000AF7860174B1A68164BAD
:1003E00020210A431A60144B1A68134B40210A4318
:1003F0001A60C046114B1B6800211800FFF7D6FE9B
:10040000031EF7D005E00D4B1A680C4B20210A4360
:100410001A600A4B1B6805211800FFF7C7FE031E70
:10042000F1D0054B1A68044B20218A431A60C0465C
:10043000BD4602B080BDC046100000080C00000898
:04000005080000DD12
:00000001FF
